{"abi":[{"type":"constructor","inputs":[{"name":"_oracle","type":"address","internalType":"address"},{"name":"_poolA","type":"address","internalType":"address"},{"name":"_poolB","type":"address","internalType":"address"}],"stateMutability":"nonpayable"},{"type":"function","name":"deposit","inputs":[],"outputs":[],"stateMutability":"payable"},{"type":"function","name":"executeStrategy","inputs":[],"outputs":[],"stateMutability":"nonpayable"},{"type":"function","name":"lastTradeTimestamp","inputs":[],"outputs":[{"name":"","type":"uint256","internalType":"uint256"}],"stateMutability":"view"},{"type":"function","name":"oracle","inputs":[],"outputs":[{"name":"","type":"address","internalType":"contract MockOracle"}],"stateMutability":"view"},{"type":"function","name":"owner","inputs":[],"outputs":[{"name":"","type":"address","internalType":"address"}],"stateMutability":"view"},{"type":"function","name":"poolA","inputs":[],"outputs":[{"name":"","type":"address","internalType":"contract MockPool"}],"stateMutability":"view"},{"type":"function","name":"poolB","inputs":[],"outputs":[{"name":"","type":"address","internalType":"contract MockPool"}],"stateMutability":"view"},{"type":"function","name":"setStrategyStatus","inputs":[{"name":"_active","type":"bool","internalType":"bool"}],"outputs":[],"stateMutability":"nonpayable"},{"type":"function","name":"strategyActive","inputs":[],"outputs":[{"name":"","type":"bool","internalType":"bool"}],"stateMutability":"view"},{"type":"function","name":"totalAssets","inputs":[],"outputs":[{"name":"","type":"uint256","internalType":"uint256"}],"stateMutability":"view"},{"type":"function","name":"updatePools","inputs":[{"name":"_poolA","type":"address","internalType":"address"},{"name":"_poolB","type":"address","internalType":"address"}],"outputs":[],"stateMutability":"nonpayable"},{"type":"function","name":"withdraw","inputs":[{"name":"amount","type":"uint256","internalType":"uint256"}],"outputs":[],"stateMutability":"nonpayable"},{"type":"event","name":"Deposit","inputs":[{"name":"user","type":"address","indexed":true,"internalType":"address"},{"name":"amount","type":"uint256","indexed":false,"internalType":"uint256"}],"anonymous":false},{"type":"event","name":"StrategyExecuted","inputs":[{"name":"action","type":"string","indexed":false,"internalType":"string"},{"name":"profit","type":"uint256","indexed":false,"internalType":"uint256"}],"anonymous":false},{"type":"event","name":"StrategyStatusUpdated","inputs":[{"name":"active","type":"bool","indexed":false,"internalType":"bool"}],"anonymous":false},{"type":"event","name":"Withdraw","inputs":[{"name":"user","type":"address","indexed":true,"internalType":"address"},{"name":"amount","type":"uint256","indexed":false,"internalType":"uint256"}],"anonymous":false}],"bytecode":{"object":"0x608060405234801561000f575f5ffd5b50604051611304380380611304833981810160405281019061003191906101b0565b335f5f6101000a81548173ffffffffffffffffffffffffffffffffffffffff021916908373ffffffffffffffffffffffffffffffffffffffff1602179055508260015f6101000a81548173ffffffffffffffffffffffffffffffffffffffff021916908373ffffffffffffffffffffffffffffffffffffffff1602179055508160025f6101000a81548173ffffffffffffffffffffffffffffffffffffffff021916908373ffffffffffffffffffffffffffffffffffffffff1602179055508060035f6101000a81548173ffffffffffffffffffffffffffffffffffffffff021916908373ffffffffffffffffffffffffffffffffffffffff160217905550600160055f6101000a81548160ff021916908315150217905550505050610200565b5f5ffd5b5f73ffffffffffffffffffffffffffffffffffffffff82169050919050565b5f61017f82610156565b9050919050565b61018f81610175565b8114610199575f5ffd5b50565b5f815190506101aa81610186565b92915050565b5f5f5f606084860312156101c7576101c6610152565b5b5f6101d48682870161019c565b93505060206101e58682870161019c565b92505060406101f68682870161019c565b9150509250925092565b6110f78061020d5f395ff3fe6080604052600436106100a6575f3560e01c80638da5cb5b116100635780638da5cb5b1461018e578063bd2a8b07146101b8578063cbbf425f146101e2578063d0e30db01461020c578063d4a2aa3314610216578063f533019014610240576100a6565b806301e1d114146100aa57806319f18dee146100d45780632e1a7d4d146100fe5780633e4a42d014610126578063446471851461014e5780637dc0d1d014610164575b5f5ffd5b3480156100b5575f5ffd5b506100be610268565b6040516100cb9190610a4e565b60405180910390f35b3480156100df575f5ffd5b506100e861026e565b6040516100f59190610a4e565b60405180910390f35b348015610109575f5ffd5b50610124600480360381019061011f9190610a95565b610274565b005b348015610131575f5ffd5b5061014c60048036038101906101479190610b1a565b610432565b005b348015610159575f5ffd5b50610162610544565b005b34801561016f575f5ffd5b50610178610806565b6040516101859190610bb3565b60405180910390f35b348015610199575f5ffd5b506101a261082b565b6040516101af9190610bdb565b60405180910390f35b3480156101c3575f5ffd5b506101cc61084f565b6040516101d99190610c0e565b60405180910390f35b3480156101ed575f5ffd5b506101f6610861565b6040516102039190610c47565b60405180910390f35b610214610886565b005b348015610221575f5ffd5b5061022a610930565b6040516102379190610c47565b60405180910390f35b34801561024b575f5ffd5b5061026660048036038101906102619190610c8a565b610955565b005b60045481565b60065481565b5f5f9054906101000a900473ffffffffffffffffffffffffffffffffffffffff1673ffffffffffffffffffffffffffffffffffffffff163373ffffffffffffffffffffffffffffffffffffffff1614610302576040517f08c379a00000000000000000000000000000000000000000000000000000000081526004016102f990610d0f565b60405180910390fd5b47811115610345576040517f08c379a000000000000000000000000000000000000000000000000000000000815260040161033c90610d77565b60405180910390fd5b8060045f8282546103569190610dc2565b925050819055505f5f9054906101000a900473ffffffffffffffffffffffffffffffffffffffff1673ffffffffffffffffffffffffffffffffffffffff166108fc8290811502906040515f60405180830381858888f193505050501580156103c0573d5f5f3e3d5ffd5b505f5f9054906101000a900473ffffffffffffffffffffffffffffffffffffffff1673ffffffffffffffffffffffffffffffffffffffff167f884edad9ce6fa2440d8a54cc123490eb96d2768479d49ff9c7366125a9424364826040516104279190610a4e565b60405180910390a250565b5f5f9054906101000a900473ffffffffffffffffffffffffffffffffffffffff1673ffffffffffffffffffffffffffffffffffffffff163373ffffffffffffffffffffffffffffffffffffffff16146104c0576040517f08c379a00000000000000000000000000000000000000000000000000000000081526004016104b790610d0f565b60405180910390fd5b8160025f6101000a81548173ffffffffffffffffffffffffffffffffffffffff021916908373ffffffffffffffffffffffffffffffffffffffff1602179055508060035f6101000a81548173ffffffffffffffffffffffffffffffffffffffff021916908373ffffffffffffffffffffffffffffffffffffffff1602179055505050565b60055f9054906101000a900460ff16610592576040517f08c379a000000000000000000000000000000000000000000000000000000000815260040161058990610e3f565b60405180910390fd5b5f60015f9054906101000a900473ffffffffffffffffffffffffffffffffffffffff1673ffffffffffffffffffffffffffffffffffffffff166341976e0960025f9054906101000a900473ffffffffffffffffffffffffffffffffffffffff166040518263ffffffff1660e01b815260040161060e9190610bdb565b602060405180830381865afa158015610629573d5f5f3e3d5ffd5b505050506040513d601f19601f8201168201806040525081019061064d9190610e71565b90505f60015f9054906101000a900473ffffffffffffffffffffffffffffffffffffffff1673ffffffffffffffffffffffffffffffffffffffff166341976e0960035f9054906101000a900473ffffffffffffffffffffffffffffffffffffffff166040518263ffffffff1660e01b81526004016106cb9190610bdb565b602060405180830381865afa1580156106e6573d5f5f3e3d5ffd5b505050506040513d601f19601f8201168201806040525081019061070a9190610e71565b9050606460668361071b9190610e9c565b6107259190610f0a565b811115610785575f606460024761073c9190610e9c565b6107469190610f0a565b90507f967c2a3d21d6001f5ed872635cf9e4a320c90180d6caed65f90623cea6d535e7816040516107779190610f84565b60405180910390a1506107fb565b60646066826107949190610e9c565b61079e9190610f0a565b8211156107fa575f60646002476107b59190610e9c565b6107bf9190610f0a565b90507f967c2a3d21d6001f5ed872635cf9e4a320c90180d6caed65f90623cea6d535e7816040516107f09190610ffa565b60405180910390a1505b5b426006819055505050565b60015f9054906101000a900473ffffffffffffffffffffffffffffffffffffffff1681565b5f5f9054906101000a900473ffffffffffffffffffffffffffffffffffffffff1681565b60055f9054906101000a900460ff1681565b60025f9054906101000a900473ffffffffffffffffffffffffffffffffffffffff1681565b5f34116108c8576040517f08c379a00000000000000000000000000000000000000000000000000000000081526004016108bf90611070565b60405180910390fd5b3460045f8282546108d9919061108e565b925050819055503373ffffffffffffffffffffffffffffffffffffffff167fe1fffcc4923d04b559f4d29a8bfc6cda04eb5b0d3c460751c2402c5c5cc9109c346040516109269190610a4e565b60405180910390a2565b60035f9054906101000a900473ffffffffffffffffffffffffffffffffffffffff1681565b5f5f9054906101000a900473ffffffffffffffffffffffffffffffffffffffff1673ffffffffffffffffffffffffffffffffffffffff163373ffffffffffffffffffffffffffffffffffffffff16146109e3576040517f08c379a00000000000000000000000000000000000000000000000000000000081526004016109da90610d0f565b60405180910390fd5b8060055f6101000a81548160ff0219169083151502179055507f902a599209b6fd531485e0c5951ca1f657e2ae357de5cc0a539377cccc4e41f581604051610a2b9190610c0e565b60405180910390a150565b5f819050919050565b610a4881610a36565b82525050565b5f602082019050610a615f830184610a3f565b92915050565b5f5ffd5b610a7481610a36565b8114610a7e575f5ffd5b50565b5f81359050610a8f81610a6b565b92915050565b5f60208284031215610aaa57610aa9610a67565b5b5f610ab784828501610a81565b91505092915050565b5f73ffffffffffffffffffffffffffffffffffffffff82169050919050565b5f610ae982610ac0565b9050919050565b610af981610adf565b8114610b03575f5ffd5b50565b5f81359050610b1481610af0565b92915050565b5f5f60408385031215610b3057610b2f610a67565b5b5f610b3d85828601610b06565b9250506020610b4e85828601610b06565b9150509250929050565b5f819050919050565b5f610b7b610b76610b7184610ac0565b610b58565b610ac0565b9050919050565b5f610b8c82610b61565b9050919050565b5f610b9d82610b82565b9050919050565b610bad81610b93565b82525050565b5f602082019050610bc65f830184610ba4565b92915050565b610bd581610adf565b82525050565b5f602082019050610bee5f830184610bcc565b92915050565b5f8115159050919050565b610c0881610bf4565b82525050565b5f602082019050610c215f830184610bff565b92915050565b5f610c3182610b82565b9050919050565b610c4181610c27565b82525050565b5f602082019050610c5a5f830184610c38565b92915050565b610c6981610bf4565b8114610c73575f5ffd5b50565b5f81359050610c8481610c60565b92915050565b5f60208284031215610c9f57610c9e610a67565b5b5f610cac84828501610c76565b91505092915050565b5f82825260208201905092915050565b7f4e6f74206f776e657200000000000000000000000000000000000000000000005f82015250565b5f610cf9600983610cb5565b9150610d0482610cc5565b602082019050919050565b5f6020820190508181035f830152610d2681610ced565b9050919050565b7f496e73756666696369656e742062616c616e63650000000000000000000000005f82015250565b5f610d61601483610cb5565b9150610d6c82610d2d565b602082019050919050565b5f6020820190508181035f830152610d8e81610d55565b9050919050565b7f4e487b71000000000000000000000000000000000000000000000000000000005f52601160045260245ffd5b5f610dcc82610a36565b9150610dd783610a36565b9250828203905081811115610def57610dee610d95565b5b92915050565b7f53747261746567792070617573656400000000000000000000000000000000005f82015250565b5f610e29600f83610cb5565b9150610e3482610df5565b602082019050919050565b5f6020820190508181035f830152610e5681610e1d565b9050919050565b5f81519050610e6b81610a6b565b92915050565b5f60208284031215610e8657610e85610a67565b5b5f610e9384828501610e5d565b91505092915050565b5f610ea682610a36565b9150610eb183610a36565b9250828202610ebf81610a36565b91508282048414831517610ed657610ed5610d95565b5b5092915050565b7f4e487b71000000000000000000000000000000000000000000000000000000005f52601260045260245ffd5b5f610f1482610a36565b9150610f1f83610a36565b925082610f2f57610f2e610edd565b5b828204905092915050565b7f41726269747261676520412d3e420000000000000000000000000000000000005f82015250565b5f610f6e600e83610cb5565b9150610f7982610f3a565b602082019050919050565b5f6040820190508181035f830152610f9b81610f62565b9050610faa6020830184610a3f565b92915050565b7f41726269747261676520422d3e410000000000000000000000000000000000005f82015250565b5f610fe4600e83610cb5565b9150610fef82610fb0565b602082019050919050565b5f6040820190508181035f83015261101181610fd8565b90506110206020830184610a3f565b92915050565b7f4465706f736974206d757374206265203e2030000000000000000000000000005f82015250565b5f61105a601383610cb5565b915061106582611026565b602082019050919050565b5f6020820190508181035f8301526110878161104e565b9050919050565b5f61109882610a36565b91506110a383610a36565b92508282019050808211156110bb576110ba610d95565b5b9291505056fea2646970667358221220116a8a0304c36ffc8d5ea70bff9e0deb647f4d7d9b12acbf074923c154e697ad64736f6c63430008210033","linkReferences":{}},"methodIdentifiers":{"deposit()":"d0e30db0","executeStrategy()":"44647185","lastTradeTimestamp()":"19f18dee","oracle()":"7dc0d1d0","owner()":"8da5cb5b","poolA()":"cbbf425f","poolB()":"d4a2aa33","setStrategyStatus(bool)":"f5330190","strategyActive()":"bd2a8b07","totalAssets()":"01e1d114","updatePools(address,address)":"3e4a42d0","withdraw(uint256)":"2e1a7d4d"},"id":16}